{
    "contractName": "MakiDistributor",
    "abi": [
        {
            "anonymous": false,
            "inputs": [
                {
                    "indexed": false,
                    "internalType": "uint256",
                    "name": "index",
                    "type": "uint256"
                },
                {
                    "indexed": false,
                    "internalType": "address",
                    "name": "account",
                    "type": "address"
                },
                {
                    "indexed": false,
                    "internalType": "uint256",
                    "name": "amount",
                    "type": "uint256"
                }
            ],
            "name": "Claimed",
            "type": "event"
        },
        {
            "anonymous": false,
            "inputs": [
                {
                    "indexed": true,
                    "internalType": "address",
                    "name": "previousOwner",
                    "type": "address"
                },
                {
                    "indexed": true,
                    "internalType": "address",
                    "name": "newOwner",
                    "type": "address"
                }
            ],
            "name": "OwnershipTransferred",
            "type": "event"
        },
        {
            "inputs": [
                {
                    "internalType": "uint256",
                    "name": "index",
                    "type": "uint256"
                },
                {
                    "internalType": "address",
                    "name": "account",
                    "type": "address"
                },
                {
                    "internalType": "uint256",
                    "name": "amount",
                    "type": "uint256"
                },
                {
                    "internalType": "bytes32[]",
                    "name": "merkleProof",
                    "type": "bytes32[]"
                }
            ],
            "name": "claim",
            "outputs": [],
            "stateMutability": "nonpayable",
            "type": "function"
        },
        {
            "inputs": [
                {
                    "internalType": "uint256",
                    "name": "amount",
                    "type": "uint256"
                }
            ],
            "name": "collectUnclaimed",
            "outputs": [],
            "stateMutability": "nonpayable",
            "type": "function"
        },
        {
            "inputs": [],
            "name": "endTime",
            "outputs": [
                {
                    "internalType": "uint256",
                    "name": "",
                    "type": "uint256"
                }
            ],
            "stateMutability": "view",
            "type": "function"
        },
        {
            "inputs": [
                {
                    "internalType": "uint256",
                    "name": "index",
                    "type": "uint256"
                }
            ],
            "name": "isClaimed",
            "outputs": [
                {
                    "internalType": "bool",
                    "name": "",
                    "type": "bool"
                }
            ],
            "stateMutability": "view",
            "type": "function"
        },
        {
            "inputs": [],
            "name": "maki",
            "outputs": [
                {
                    "internalType": "contract IERC20",
                    "name": "",
                    "type": "address"
                }
            ],
            "stateMutability": "view",
            "type": "function"
        },
        {
            "inputs": [],
            "name": "merkleRoot",
            "outputs": [
                {
                    "internalType": "bytes32",
                    "name": "",
                    "type": "bytes32"
                }
            ],
            "stateMutability": "view",
            "type": "function"
        },
        {
            "inputs": [],
            "name": "owner",
            "outputs": [
                {
                    "internalType": "address",
                    "name": "",
                    "type": "address"
                }
            ],
            "stateMutability": "view",
            "type": "function"
        },
        {
            "inputs": [],
            "name": "renounceOwnership",
            "outputs": [],
            "stateMutability": "nonpayable",
            "type": "function"
        },
        {
            "inputs": [],
            "name": "startTime",
            "outputs": [
                {
                    "internalType": "uint256",
                    "name": "",
                    "type": "uint256"
                }
            ],
            "stateMutability": "view",
            "type": "function"
        },
        {
            "inputs": [
                {
                    "internalType": "address",
                    "name": "newOwner",
                    "type": "address"
                }
            ],
            "name": "transferOwnership",
            "outputs": [],
            "stateMutability": "nonpayable",
            "type": "function"
        }
    ],
    "bytecode": "6101006040527f5fad6fbba4bba686ba9b8052cf0bd51699f38b930000000000000000000000006080527ffd714b930f3af79fe23209c290b5d4801276126e350bb2652141250ee270dddf60a0524260c081905262ed4e000160e05234801561006757600080fd5b50600061007b6001600160e01b036100ca16565b600080546001600160a01b0319166001600160a01b0383169081178255604051929350917f8be0079c531659141344cd1fd0a4f28419497f9722a3daafe3b4186f6b6457e0908290a3506100ce565b3390565b60805160601c60a05160c05160e051610b1d610124600039806103c252806105a0528061075d525080610355528061069c5250806102d6528061057c52508061042f528061067852806107d25250610b1d6000f3fe608060405234801561001057600080fd5b506004361061009e5760003560e01c806378e979251161006657806378e979251461017f5780638da5cb5b146101875780639e34070f1461018f578063ec144dc7146101c0578063f2fde38b146101dd5761009e565b80632e7ba6ef146100a35780632eb4a7ab146101315780633197cbb61461014b578063715018a614610153578063717559c31461015b575b600080fd5b61012f600480360360808110156100b957600080fd5b8135916001600160a01b0360208201351691604082013591908101906080810160608201356401000000008111156100f057600080fd5b82018360208201111561010257600080fd5b8035906020019184602083028401116401000000008311171561012457600080fd5b509092509050610203565b005b61013961057a565b60408051918252519081900360200190f35b61013961059e565b61012f6105c2565b610163610676565b604080516001600160a01b039092168252519081900360200190f35b61013961069a565b6101636106be565b6101ac600480360360208110156101a557600080fd5b50356106cd565b604080519115158252519081900360200190f35b61012f600480360360208110156101d657600080fd5b50356106f1565b61012f600480360360208110156101f357600080fd5b50356001600160a01b03166108c1565b61020c856106cd565b1561025e576040805162461bcd60e51b815260206004820152601760248201527f636c61696d3a20616c726561647920636c61696d65642e000000000000000000604482015290519081900360640190fd5b6040805160208082018890526bffffffffffffffffffffffff19606088901b1682840152605480830187905283518084039091018152607483018085528151918301919091206094928602808501840190955285825293610301939192879287928392909101908490808284376000920191909152507f000000000000000000000000000000000000000000000000000000000000000092508591506109cb9050565b61034a576040805162461bcd60e51b815260206004820152601560248201527431b630b4b69d1034b73b30b634b210383937b7b31760591b604482015290519081900360640190fd5b61035386610a74565b7f00000000000000000000000000000000000000000000000000000000000000004210156103c0576040805162461bcd60e51b81526020600482015260156024820152742fb9b2ba21b630b4b6b2b21d103a37b79039b7b7b760591b604482015290519081900360640190fd5b7f000000000000000000000000000000000000000000000000000000000000000042111561042d576040805162461bcd60e51b81526020600482015260156024820152745f736574436c61696d65643a20746f6f206c61746560581b604482015290519081900360640190fd5b7f00000000000000000000000000000000000000000000000000000000000000006001600160a01b031663a9059cbb86866040518363ffffffff1660e01b815260040180836001600160a01b03166001600160a01b0316815260200182815260200192505050602060405180830381600087803b1580156104ad57600080fd5b505af11580156104c1573d6000803e3d6000fd5b505050506040513d60208110156104d757600080fd5b505161052a576040805162461bcd60e51b815260206004820152601c60248201527f5f736574436c61696d65643a207472616e73666572206661696c656400000000604482015290519081900360640190fd5b604080518781526001600160a01b038716602082015280820186905290517f4ec90e965519d92681267467f775ada5bd214aa92c0dc93d90a5e880ce9ed0269181900360600190a1505050505050565b7f000000000000000000000000000000000000000000000000000000000000000081565b7f000000000000000000000000000000000000000000000000000000000000000081565b6105ca610a9c565b6000546001600160a01b0390811691161461062c576040805162461bcd60e51b815260206004820181905260248201527f4f776e61626c653a2063616c6c6572206973206e6f7420746865206f776e6572604482015290519081900360640190fd5b600080546040516001600160a01b03909116907f8be0079c531659141344cd1fd0a4f28419497f9722a3daafe3b4186f6b6457e0908390a3600080546001600160a01b0319169055565b7f000000000000000000000000000000000000000000000000000000000000000081565b7f000000000000000000000000000000000000000000000000000000000000000081565b6000546001600160a01b031690565b610100810460009081526001602081905260409091205460ff9092161b9081161490565b6106f9610a9c565b6000546001600160a01b0390811691161461075b576040805162461bcd60e51b815260206004820181905260248201527f4f776e61626c653a2063616c6c6572206973206e6f7420746865206f776e6572604482015290519081900360640190fd5b7f00000000000000000000000000000000000000000000000000000000000000004210156107d0576040805162461bcd60e51b815260206004820152601a60248201527f636f6c6c656374556e636c61696d65643a20746f6f20736f6f6e000000000000604482015290519081900360640190fd5b7f00000000000000000000000000000000000000000000000000000000000000006001600160a01b031663a9059cbb6108076106be565b836040518363ffffffff1660e01b815260040180836001600160a01b03166001600160a01b0316815260200182815260200192505050602060405180830381600087803b15801561085757600080fd5b505af115801561086b573d6000803e3d6000fd5b505050506040513d602081101561088157600080fd5b50516108be5760405162461bcd60e51b8152600401808060200182810382526021815260200180610ac76021913960400191505060405180910390fd5b50565b6108c9610a9c565b6000546001600160a01b0390811691161461092b576040805162461bcd60e51b815260206004820181905260248201527f4f776e61626c653a2063616c6c6572206973206e6f7420746865206f776e6572604482015290519081900360640190fd5b6001600160a01b0381166109705760405162461bcd60e51b8152600401808060200182810382526026815260200180610aa16026913960400191505060405180910390fd5b600080546040516001600160a01b03808516939216917f8be0079c531659141344cd1fd0a4f28419497f9722a3daafe3b4186f6b6457e091a3600080546001600160a01b0319166001600160a01b0392909216919091179055565b600081815b8551811015610a695760008682815181106109e757fe5b60200260200101519050808311610a2e5782816040516020018083815260200182815260200192505050604051602081830303815290604052805190602001209250610a60565b808360405160200180838152602001828152602001925050506040516020818303038152906040528051906020012092505b506001016109d0565b509092149392505050565b61010081046000908152600160208190526040909120805460ff9093169190911b9091179055565b339056fe4f776e61626c653a206e6577206f776e657220697320746865207a65726f2061646472657373636f6c6c656374556e636c61696d65643a207472616e73666572206661696c6564a2646970667358221220685b6e053b1fda4343894be58f4fcf3bb75df6b6031919baad0663316db787dc64736f6c634300060b0033",
    "sourcePath": "/Users/unico/Documents/GitHub/makiswap/makiswap-airdrop/contracts/MakiDistributor.sol",
    "compiler": {
        "name": "solc",
        "version": "0.6.11+commit.5ef660b1"
    },
    "functionHashes": {
        "claim(uint256,address,uint256,bytes32[])": "2e7ba6ef",
        "collectUnclaimed(uint256)": "ec144dc7",
        "endTime()": "3197cbb6",
        "isClaimed(uint256)": "9e34070f",
        "maki()": "717559c3",
        "merkleRoot()": "2eb4a7ab",
        "owner()": "8da5cb5b",
        "renounceOwnership()": "715018a6",
        "startTime()": "78e97925",
        "transferOwnership(address)": "f2fde38b"
    },
    "gasEstimates": {
        "creation": {
            "codeDepositCost": "569000",
            "executionCost": "infinite",
            "totalCost": "infinite"
        },
        "external": {
            "claim(uint256,address,uint256,bytes32[])": "infinite",
            "collectUnclaimed(uint256)": "infinite",
            "endTime()": "infinite",
            "isClaimed(uint256)": "1203",
            "maki()": "infinite",
            "merkleRoot()": "infinite",
            "owner()": "1059",
            "renounceOwnership()": "24271",
            "startTime()": "infinite",
            "transferOwnership(address)": "infinite"
        },
        "internal": {
            "_setClaimed(uint256)": "20943"
        }
    }
}